{
  "contractName": "SI",
  "abi": [
    {
      "constant": true,
      "inputs": [],
      "name": "Rate",
      "outputs": [
        {
          "name": "",
          "type": "uint256"
        }
      ],
      "payable": false,
      "stateMutability": "view",
      "type": "function"
    },
    {
      "constant": true,
      "inputs": [],
      "name": "Interest",
      "outputs": [
        {
          "name": "",
          "type": "uint256"
        }
      ],
      "payable": false,
      "stateMutability": "view",
      "type": "function"
    },
    {
      "constant": true,
      "inputs": [],
      "name": "owner",
      "outputs": [
        {
          "name": "",
          "type": "address"
        }
      ],
      "payable": false,
      "stateMutability": "view",
      "type": "function"
    },
    {
      "constant": true,
      "inputs": [
        {
          "name": "pr",
          "type": "uint256"
        },
        {
          "name": "ti",
          "type": "uint256"
        }
      ],
      "name": "tenant",
      "outputs": [
        {
          "name": "",
          "type": "address"
        }
      ],
      "payable": false,
      "stateMutability": "view",
      "type": "function"
    },
    {
      "constant": true,
      "inputs": [],
      "name": "Principal",
      "outputs": [
        {
          "name": "",
          "type": "uint256"
        }
      ],
      "payable": false,
      "stateMutability": "view",
      "type": "function"
    },
    {
      "constant": false,
      "inputs": [
        {
          "name": "pr",
          "type": "uint256"
        },
        {
          "name": "ti",
          "type": "uint256"
        },
        {
          "name": "ra",
          "type": "uint256"
        }
      ],
      "name": "calculate",
      "outputs": [
        {
          "name": "success",
          "type": "bool"
        }
      ],
      "payable": false,
      "stateMutability": "nonpayable",
      "type": "function"
    },
    {
      "constant": true,
      "inputs": [],
      "name": "Time",
      "outputs": [
        {
          "name": "",
          "type": "uint256"
        }
      ],
      "payable": false,
      "stateMutability": "view",
      "type": "function"
    },
    {
      "inputs": [],
      "payable": false,
      "stateMutability": "nonpayable",
      "type": "constructor"
    }
  ],
  "bytecode": "0x6060604052341561000f57600080fd5b33600560006101000a81548173ffffffffffffffffffffffffffffffffffffffff021916908373ffffffffffffffffffffffffffffffffffffffff160217905550600080819055506102f2806100666000396000f300606060405260043610610083576000357c0100000000000000000000000000000000000000000000000000000000900463ffffffff1680631b8e94a1146100885780638b5d0634146100b15780638da5cb5b146100da578063adf077911461012f578063af125c8a14610184578063e97cf883146101ad578063f8e157ea146101fa575b600080fd5b341561009357600080fd5b61009b610223565b6040518082815260200191505060405180910390f35b34156100bc57600080fd5b6100c4610229565b6040518082815260200191505060405180910390f35b34156100e557600080fd5b6100ed61022f565b604051808273ffffffffffffffffffffffffffffffffffffffff1673ffffffffffffffffffffffffffffffffffffffff16815260200191505060405180910390f35b341561013a57600080fd5b610142610255565b604051808273ffffffffffffffffffffffffffffffffffffffff1673ffffffffffffffffffffffffffffffffffffffff16815260200191505060405180910390f35b341561018f57600080fd5b61019761027b565b6040518082815260200191505060405180910390f35b34156101b857600080fd5b6101e06004808035906020019091908035906020019091908035906020019091905050610281565b604051808215151515815260200191505060405180910390f35b341561020557600080fd5b61020d6102c0565b6040518082815260200191505060405180910390f35b60025481565b60035481565b600460009054906101000a900473ffffffffffffffffffffffffffffffffffffffff1681565b600560009054906101000a900473ffffffffffffffffffffffffffffffffffffffff1681565b60005481565b6000836000819055508260018190555081600281905550606460025460015460005402028115156102ae57fe5b04600381905550600190509392505050565b600154815600a165627a7a72305820317b28f6bad38dde6c54a76271a68ec9ed709ac82ffc045ebcb6c32360ada1220029",
  "source": "pragma solidity ^0.4.4;\n\ncontract SI {\n    uint public Principal;\n    uint public Time;\n    uint public Rate;\n    uint public Interest;\n    address public owner;\n    address public tenant;\n   uint actualDepartTime; \n        function SI() public {\n            tenant=msg.sender;\n            Principal=0;\n        }\n        \n        function calculate(uint pr,uint ti,uint ra) public returns (bool success)\n        {\n\t\n         Principal=pr;\n         Time=ti;\n         Rate=ra;\n        Interest=(Principal*Time*Rate)/100;\n\treturn true;\n        }\n    \n     \n }\n",
  "sourcePath": "/home/shanker/Desktop/SI_Basic/contracts/SI.sol",
  "compiler": {
    "name": "solc",
    "version": "0.4.18+commit.9cf6e910.Emscripten.clang"
  },
  "schemaVersion": "1.0.1",
  "updatedAt": "2018-01-02T09:26:07.934Z"
}